:101000000000042079130000611300006313000046
:101010006513000067130000691300000000000062
:101020000000000000000000000000006B13000042
:101030006D130000000000006F130000711300002A
:101040007313000073130000731300007313000088
:101050007313000073130000731300007313000078
:101060007313000073130000731300007313000068
:101070007313000073130000731300007313000058
:101080007313000073130000731300007313000048
:101090007313000073130000731300007313000038
:1010A0007313000073130000731300007313000028
:1010B0007313000073130000000000000000000024
:1010C0007313000073130000731300007313000008
:1010D00073130000731300007313000073130000F8
:1010E000731300007313000073130000000000006E
:1010F00000000000731300000000000073130000E4
:1011000000000000000000000000000000000000DF
:1011100000000000000000000000000000000000CF
:1011200000000000000000000000000000000000BF
:1011300000000000000000000000000000000000AF
:10114000000000000000000000000000000000009F
:10115000000000000000000000000000000000008F
:10116000000000000000000000000000000000007F
:10117000000000000000000000000000000000006F
:10118000000000000000000000000000000000005F
:10119000000000000000000000000000000000004F
:1011A000000000000000000000000000000000003F
:1011B000000000000000000000000000000000002F
:1011C000000000000000000000000000000000001F
:1011D000000000000000000000000000000000000F
:1011E00000000000000000000000000000000000FF
:1011F00000000000000000000000000000000000EF
:10120000364937480A1A02D0072291438D4635499C
:1012100035480A1A06D00722914381F30988022231
:1012200082F3148831483249324A00F045F8324896
:101230003249334A00F040F832483349334A00F02B
:101240003BF833483349344A00F036F833483449E0
:10125000344A00F031F834483449354A00F02CF86B
:1012600034483549354A00F027F8354835490022D9
:1012700000F02DF834483549002200F028F83448B1
:101280003449091A082903DB002202600430016096
:10129000314A90471F482049884205D002680430EF
:1012A00003B4904703BCF7E700208646EC460020D5
:1012B00000212A4A9047FEE7884207D0521A05D0FB
:1012C000037801300B700131013AF9D1704788423F
:1012D00002D002700130FAE77047000000000420DD
:1012E00000E0032000000420000004202817000074
:1012F000080000200C000020D4130000D4130000CC
:10130000181700002817000008000020080000201F
:101310001817000018170000181700001817000011
:101320001817000018170000181700001817000001
:10133000261700002C1700000C0000200C000020D5
:101340000C0000200C0000200C0000200C000020ED
:101350000C0000200C200020A1130000111500003B
:10136000FEE7FEE7FEE7FEE7FEE7FEE7FEE7FEE755
:10137000FEE7FEE700F002B8FFF7FCBF0F484FF0B2
:101380000701884385460E4880470E48016841F4AE
:1013900070010160BFF34F8FBFF36F8FFFF730BF56
:1013A00009480A490A4A884207D0521A05D00378E8
:1013B00001300B700131013AF9D17047000004206F
:1013C0006115000088ED00E01817000008000020FB
:0413D00008000020F1
:1013D400074B1B5C1F2B86BF03F01F0305494FF00F
:1013E400A041012202FA03F3C1F80835704700BF97
:1013F400181700000003005008B50020FFF7E8FFAD
:101404000120FFF7E5FF0220FFF7E2FF0320BDE81C
:101414000840FFF7DDBF00000A4B185C1F288ABF95
:10142400094B4FF0A04300F01F00D3F8042501211D
:10143400814021EA02000A40C3F80805C3F80C25DC
:10144400704700BF1817000000030050C20770B5B2
:1014540004464AD54FF08043D3F8403613F00103D5
:101464002FD04FF01023D3F8043303F00703072BD6
:1014740026D1214B0122C3F80425D3F80024002AE5
:10148400FBD04FF01021D1F8042322F0070242F0E0
:101494000402C1F804230022C3F80425164AD2F832
:1014A4000034002BFBD0BFF34F8F1449144BCA6890
:1014B40002F4E0621343CB60BFF34F8F00BFFDE73C
:1014C4000023104D104E03205A5D1F2A86BF02F0E0
:1014D4001F0231464FF0A04102F5E0720133042BA4
:1014E40041F82200F0D1FFF787FFA30742BF064B64
:1014F4000C22C3F8182770BD00E0014000ED00E0A5
:101504000400FA05181700000003005070B501200C
:10151400094DFFF79BFF45F0010500242046FFF726
:101524007BFF4FF4FA764FF47A40A847013EFAD194
:101534000134042CF2D1F0E720170000054B1B689E
:10154400082B01BF044B1868B0FA80F0400918BF9B
:1015540000207047300100103401001008B54FF02E
:1015640080430022C3F80C21C3F81021C3F83825A6
:101574004FF0805203F54043D2F80414C3F8201509
:10158400D2F80814C3F82415D2F80C14C3F828159B
:10159400D2F81014C3F82C15D2F81414C3F830156B
:1015A400D2F81814C3F83415D2F81C14C3F8401533
:1015B400D2F82014C3F84415D2F82414C3F84815FB
:1015C400D2F82814C3F84C15D2F82C14C3F85015CB
:1015D400D2F83014C3F85415D2F83414C3F8601593
:1015E400D2F83814C3F86415D2F83C14C3F868155B
:1015F400D2F84014C3F86C15D2F84424C3F870250B
:10160400FFF79CFF10B1384B384A1A60FFF796FF7A
:1016140018B1374BFB22C3F81825FFF78FFF48B1E9
:101624003449354B0A681B6822F00F0203F00F039C
:1016340013430B60FFF782FF18B1304B4FF4007275
:101644001A604FF08043D3F80024D20744BF6FF0F0
:101654000102C3F800242A4AD2F8883043F4700304
:10166400C2F88830BFF34F8FBFF36F8F4FF0102352
:10167400D3F80022002A03DBD3F80432002B2FDA3C
:10168400204B0122C3F80425D3F80024002AFBD000
:101694004FF010221221C2F80012D3F80024002ABD
:1016A400FBD04FF010231222C3F80422154B1A4624
:1016B400D3F800140029FBD00021C3F80415D2F894
:1016C4000034002BFBD0BFF34F8F0D490E4BCA687B
:1016D40002F4E0621343CB60BFF34F8F00BFFDE71A
:1016E4000A4B0B4A1A6008BD8C560040488103001F
:1016F40000F00040E40E0040580200104096024002
:1017040000ED00E000E001400400FA0508000020BC
:041714000090D0036E
:0E1718000608290C000000000338FDD87047B9
:041728000090D0035A
:04000003000013796D
:00000001FF
